{
  "_format": "hh-sol-artifact-1",
  "contractName": "CommunityMarketV1",
  "sourceName": "contracts/CommunityMarketV1.sol",
  "abi": [
    {
      "inputs": [],
      "stateMutability": "nonpayable",
      "type": "constructor"
    },
    {
      "inputs": [
        {
          "internalType": "address",
          "name": "target",
          "type": "address"
        }
      ],
      "name": "AddressEmptyCode",
      "type": "error"
    },
    {
      "inputs": [],
      "name": "AlreadyClaimed",
      "type": "error"
    },
    {
      "inputs": [],
      "name": "AlreadyCompleted",
      "type": "error"
    },
    {
      "inputs": [],
      "name": "AlreadyEnded",
      "type": "error"
    },
    {
      "inputs": [],
      "name": "AlreadyJoined",
      "type": "error"
    },
    {
      "inputs": [],
      "name": "CampaignAlreadyHasParticipants",
      "type": "error"
    },
    {
      "inputs": [],
      "name": "CampaignNotEnded",
      "type": "error"
    },
    {
      "inputs": [],
      "name": "CampaignNotFound",
      "type": "error"
    },
    {
      "inputs": [
        {
          "internalType": "address",
          "name": "implementation",
          "type": "address"
        }
      ],
      "name": "ERC1967InvalidImplementation",
      "type": "error"
    },
    {
      "inputs": [],
      "name": "ERC1967NonPayable",
      "type": "error"
    },
    {
      "inputs": [],
      "name": "FailedCall",
      "type": "error"
    },
    {
      "inputs": [],
      "name": "InvalidForfeitPct",
      "type": "error"
    },
    {
      "inputs": [],
      "name": "InvalidInitialization",
      "type": "error"
    },
    {
      "inputs": [],
      "name": "InvalidInput",
      "type": "error"
    },
    {
      "inputs": [],
      "name": "InvalidProof",
      "type": "error"
    },
    {
      "inputs": [],
      "name": "MilestoneNotFound",
      "type": "error"
    },
    {
      "inputs": [],
      "name": "NoMilestones",
      "type": "error"
    },
    {
      "inputs": [],
      "name": "NoStakeToClaim",
      "type": "error"
    },
    {
      "inputs": [],
      "name": "NotInitializing",
      "type": "error"
    },
    {
      "inputs": [],
      "name": "NotJoined",
      "type": "error"
    },
    {
      "inputs": [
        {
          "internalType": "address",
          "name": "owner",
          "type": "address"
        }
      ],
      "name": "OwnableInvalidOwner",
      "type": "error"
    },
    {
      "inputs": [
        {
          "internalType": "address",
          "name": "account",
          "type": "address"
        }
      ],
      "name": "OwnableUnauthorizedAccount",
      "type": "error"
    },
    {
      "inputs": [],
      "name": "PayoutRootNotSet",
      "type": "error"
    },
    {
      "inputs": [],
      "name": "ProofAfterDeadline",
      "type": "error"
    },
    {
      "inputs": [],
      "name": "ProofBeforeStart",
      "type": "error"
    },
    {
      "inputs": [],
      "name": "ReentrancyGuardReentrantCall",
      "type": "error"
    },
    {
      "inputs": [
        {
          "internalType": "address",
          "name": "token",
          "type": "address"
        }
      ],
      "name": "SafeERC20FailedOperation",
      "type": "error"
    },
    {
      "inputs": [],
      "name": "UUPSUnauthorizedCallContext",
      "type": "error"
    },
    {
      "inputs": [
        {
          "internalType": "bytes32",
          "name": "slot",
          "type": "bytes32"
        }
      ],
      "name": "UUPSUnsupportedProxiableUUID",
      "type": "error"
    },
    {
      "inputs": [],
      "name": "Unauthorized",
      "type": "error"
    },
    {
      "anonymous": false,
      "inputs": [
        {
          "indexed": true,
          "internalType": "uint256",
          "name": "campaignId",
          "type": "uint256"
        },
        {
          "indexed": true,
          "internalType": "address",
          "name": "participant",
          "type": "address"
        }
      ],
      "name": "CommunityCampaignJoined",
      "type": "event"
    },
    {
      "anonymous": false,
      "inputs": [
        {
          "indexed": true,
          "internalType": "uint256",
          "name": "campaignId",
          "type": "uint256"
        },
        {
          "indexed": true,
          "internalType": "uint256",
          "name": "milestoneId",
          "type": "uint256"
        },
        {
          "indexed": true,
          "internalType": "address",
          "name": "participant",
          "type": "address"
        },
        {
          "indexed": false,
          "internalType": "string",
          "name": "proofLink",
          "type": "string"
        },
        {
          "indexed": false,
          "internalType": "uint256",
          "name": "pointsAwarded",
          "type": "uint256"
        },
        {
          "indexed": false,
          "internalType": "uint256",
          "name": "pointsTotal",
          "type": "uint256"
        }
      ],
      "name": "CommunityCampaignMilestoneProofSubmitted",
      "type": "event"
    },
    {
      "anonymous": false,
      "inputs": [
        {
          "indexed": true,
          "internalType": "uint256",
          "name": "campaignId",
          "type": "uint256"
        },
        {
          "indexed": false,
          "internalType": "uint256",
          "name": "milestoneCount",
          "type": "uint256"
        }
      ],
      "name": "CommunityCampaignMilestonesAdded",
      "type": "event"
    },
    {
      "anonymous": false,
      "inputs": [
        {
          "indexed": true,
          "internalType": "uint256",
          "name": "campaignId",
          "type": "uint256"
        },
        {
          "indexed": false,
          "internalType": "bool",
          "name": "isPaid",
          "type": "bool"
        },
        {
          "indexed": false,
          "internalType": "address",
          "name": "joinToken",
          "type": "address"
        },
        {
          "indexed": false,
          "internalType": "uint256",
          "name": "joinAmount",
          "type": "uint256"
        },
        {
          "indexed": false,
          "internalType": "uint8",
          "name": "forfeitPct",
          "type": "uint8"
        }
      ],
      "name": "CommunityCampaignPaidConfigured",
      "type": "event"
    },
    {
      "anonymous": false,
      "inputs": [
        {
          "indexed": true,
          "internalType": "uint256",
          "name": "campaignId",
          "type": "uint256"
        },
        {
          "indexed": true,
          "internalType": "address",
          "name": "winner",
          "type": "address"
        },
        {
          "indexed": false,
          "internalType": "uint256",
          "name": "amount",
          "type": "uint256"
        }
      ],
      "name": "CommunityCampaignRewardClaimed",
      "type": "event"
    },
    {
      "anonymous": false,
      "inputs": [
        {
          "indexed": true,
          "internalType": "uint256",
          "name": "campaignId",
          "type": "uint256"
        },
        {
          "indexed": false,
          "internalType": "string",
          "name": "contentHash",
          "type": "string"
        },
        {
          "indexed": false,
          "internalType": "uint256",
          "name": "duration",
          "type": "uint256"
        },
        {
          "indexed": false,
          "internalType": "uint256",
          "name": "proofIntervalSeconds",
          "type": "uint256"
        },
        {
          "indexed": true,
          "internalType": "address",
          "name": "creator",
          "type": "address"
        }
      ],
      "name": "CommunityChallengeCreated",
      "type": "event"
    },
    {
      "anonymous": false,
      "inputs": [
        {
          "indexed": true,
          "internalType": "uint256",
          "name": "campaignId",
          "type": "uint256"
        },
        {
          "indexed": false,
          "internalType": "uint256",
          "name": "endedAt",
          "type": "uint256"
        }
      ],
      "name": "CommunityChallengeEnded",
      "type": "event"
    },
    {
      "anonymous": false,
      "inputs": [
        {
          "indexed": true,
          "internalType": "uint256",
          "name": "campaignId",
          "type": "uint256"
        },
        {
          "indexed": false,
          "internalType": "uint256",
          "name": "totalPool",
          "type": "uint256"
        },
        {
          "indexed": false,
          "internalType": "uint256",
          "name": "addedAmount",
          "type": "uint256"
        },
        {
          "indexed": true,
          "internalType": "address",
          "name": "funder",
          "type": "address"
        }
      ],
      "name": "CommunityChallengeFunded",
      "type": "event"
    },
    {
      "anonymous": false,
      "inputs": [
        {
          "indexed": true,
          "internalType": "uint256",
          "name": "campaignId",
          "type": "uint256"
        },
        {
          "indexed": true,
          "internalType": "address",
          "name": "participant",
          "type": "address"
        },
        {
          "indexed": false,
          "internalType": "address",
          "name": "token",
          "type": "address"
        },
        {
          "indexed": false,
          "internalType": "uint256",
          "name": "amount",
          "type": "uint256"
        }
      ],
      "name": "CommunityJoinStakeClaimed",
      "type": "event"
    },
    {
      "anonymous": false,
      "inputs": [
        {
          "indexed": true,
          "internalType": "uint256",
          "name": "campaignId",
          "type": "uint256"
        },
        {
          "indexed": false,
          "internalType": "bytes32",
          "name": "merkleRoot",
          "type": "bytes32"
        },
        {
          "indexed": false,
          "internalType": "uint256",
          "name": "totalClaimable",
          "type": "uint256"
        }
      ],
      "name": "CommunityPayoutRootSet",
      "type": "event"
    },
    {
      "anonymous": false,
      "inputs": [
        {
          "indexed": false,
          "internalType": "uint64",
          "name": "version",
          "type": "uint64"
        }
      ],
      "name": "Initialized",
      "type": "event"
    },
    {
      "anonymous": false,
      "inputs": [
        {
          "indexed": true,
          "internalType": "address",
          "name": "previousOwner",
          "type": "address"
        },
        {
          "indexed": true,
          "internalType": "address",
          "name": "newOwner",
          "type": "address"
        }
      ],
      "name": "OwnershipTransferred",
      "type": "event"
    },
    {
      "anonymous": false,
      "inputs": [
        {
          "indexed": true,
          "internalType": "address",
          "name": "implementation",
          "type": "address"
        }
      ],
      "name": "Upgraded",
      "type": "event"
    },
    {
      "inputs": [],
      "name": "BASE_PROOF_POINTS",
      "outputs": [
        {
          "internalType": "uint256",
          "name": "",
          "type": "uint256"
        }
      ],
      "stateMutability": "view",
      "type": "function"
    },
    {
      "inputs": [],
      "name": "DAY",
      "outputs": [
        {
          "internalType": "uint256",
          "name": "",
          "type": "uint256"
        }
      ],
      "stateMutability": "view",
      "type": "function"
    },
    {
      "inputs": [],
      "name": "MAX_STREAK_BONUS",
      "outputs": [
        {
          "internalType": "uint256",
          "name": "",
          "type": "uint256"
        }
      ],
      "stateMutability": "view",
      "type": "function"
    },
    {
      "inputs": [],
      "name": "STREAK_BONUS",
      "outputs": [
        {
          "internalType": "uint256",
          "name": "",
          "type": "uint256"
        }
      ],
      "stateMutability": "view",
      "type": "function"
    },
    {
      "inputs": [],
      "name": "UPGRADE_INTERFACE_VERSION",
      "outputs": [
        {
          "internalType": "string",
          "name": "",
          "type": "string"
        }
      ],
      "stateMutability": "view",
      "type": "function"
    },
    {
      "inputs": [
        {
          "internalType": "uint256",
          "name": "campaignId",
          "type": "uint256"
        },
        {
          "internalType": "string[]",
          "name": "mURIs",
          "type": "string[]"
        },
        {
          "internalType": "uint256[]",
          "name": "mDurations",
          "type": "uint256[]"
        }
      ],
      "name": "addCommunityCampaignMilestones",
      "outputs": [],
      "stateMutability": "nonpayable",
      "type": "function"
    },
    {
      "inputs": [
        {
          "internalType": "uint256",
          "name": "",
          "type": "uint256"
        }
      ],
      "name": "campaignForfeitPct",
      "outputs": [
        {
          "internalType": "uint8",
          "name": "",
          "type": "uint8"
        }
      ],
      "stateMutability": "view",
      "type": "function"
    },
    {
      "inputs": [
        {
          "internalType": "uint256",
          "name": "",
          "type": "uint256"
        }
      ],
      "name": "campaignIsPaid",
      "outputs": [
        {
          "internalType": "bool",
          "name": "",
          "type": "bool"
        }
      ],
      "stateMutability": "view",
      "type": "function"
    },
    {
      "inputs": [
        {
          "internalType": "uint256",
          "name": "",
          "type": "uint256"
        }
      ],
      "name": "campaignJoinAmount",
      "outputs": [
        {
          "internalType": "uint256",
          "name": "",
          "type": "uint256"
        }
      ],
      "stateMutability": "view",
      "type": "function"
    },
    {
      "inputs": [
        {
          "internalType": "uint256",
          "name": "",
          "type": "uint256"
        }
      ],
      "name": "campaignJoinToken",
      "outputs": [
        {
          "internalType": "address",
          "name": "",
          "type": "address"
        }
      ],
      "stateMutability": "view",
      "type": "function"
    },
    {
      "inputs": [
        {
          "internalType": "uint256",
          "name": "",
          "type": "uint256"
        },
        {
          "internalType": "address",
          "name": "",
          "type": "address"
        }
      ],
      "name": "campaignJoined",
      "outputs": [
        {
          "internalType": "bool",
          "name": "",
          "type": "bool"
        }
      ],
      "stateMutability": "view",
      "type": "function"
    },
    {
      "inputs": [
        {
          "internalType": "uint256",
          "name": "",
          "type": "uint256"
        }
      ],
      "name": "campaignMilestoneCount",
      "outputs": [
        {
          "internalType": "uint256",
          "name": "",
          "type": "uint256"
        }
      ],
      "stateMutability": "view",
      "type": "function"
    },
    {
      "inputs": [
        {
          "internalType": "uint256",
          "name": "",
          "type": "uint256"
        },
        {
          "internalType": "uint256",
          "name": "",
          "type": "uint256"
        }
      ],
      "name": "campaignMilestoneDeadline",
      "outputs": [
        {
          "internalType": "uint256",
          "name": "",
          "type": "uint256"
        }
      ],
      "stateMutability": "view",
      "type": "function"
    },
    {
      "inputs": [
        {
          "internalType": "uint256",
          "name": "",
          "type": "uint256"
        },
        {
          "internalType": "uint256",
          "name": "",
          "type": "uint256"
        }
      ],
      "name": "campaignMilestoneStartTime",
      "outputs": [
        {
          "internalType": "uint256",
          "name": "",
          "type": "uint256"
        }
      ],
      "stateMutability": "view",
      "type": "function"
    },
    {
      "inputs": [
        {
          "internalType": "uint256",
          "name": "",
          "type": "uint256"
        },
        {
          "internalType": "uint256",
          "name": "",
          "type": "uint256"
        }
      ],
      "name": "campaignMilestoneURI",
      "outputs": [
        {
          "internalType": "string",
          "name": "",
          "type": "string"
        }
      ],
      "stateMutability": "view",
      "type": "function"
    },
    {
      "inputs": [
        {
          "internalType": "uint256",
          "name": "",
          "type": "uint256"
        }
      ],
      "name": "campaignParticipantCount",
      "outputs": [
        {
          "internalType": "uint256",
          "name": "",
          "type": "uint256"
        }
      ],
      "stateMutability": "view",
      "type": "function"
    },
    {
      "inputs": [
        {
          "internalType": "uint256",
          "name": "",
          "type": "uint256"
        }
      ],
      "name": "campaigns",
      "outputs": [
        {
          "internalType": "string",
          "name": "contentHash",
          "type": "string"
        },
        {
          "internalType": "uint256",
          "name": "poolAmount",
          "type": "uint256"
        },
        {
          "internalType": "uint256",
          "name": "startTime",
          "type": "uint256"
        },
        {
          "internalType": "uint256",
          "name": "duration",
          "type": "uint256"
        },
        {
          "internalType": "uint256",
          "name": "proofIntervalSeconds",
          "type": "uint256"
        },
        {
          "internalType": "bool",
          "name": "active",
          "type": "bool"
        },
        {
          "internalType": "bool",
          "name": "ended",
          "type": "bool"
        },
        {
          "internalType": "address",
          "name": "creator",
          "type": "address"
        }
      ],
      "stateMutability": "view",
      "type": "function"
    },
    {
      "inputs": [
        {
          "internalType": "uint256",
          "name": "campaignId",
          "type": "uint256"
        },
        {
          "internalType": "uint256",
          "name": "amount",
          "type": "uint256"
        },
        {
          "internalType": "bytes32[]",
          "name": "proof",
          "type": "bytes32[]"
        }
      ],
      "name": "claimCommunityCampaignReward",
      "outputs": [],
      "stateMutability": "nonpayable",
      "type": "function"
    },
    {
      "inputs": [
        {
          "internalType": "uint256",
          "name": "campaignId",
          "type": "uint256"
        }
      ],
      "name": "claimCommunityJoinStake",
      "outputs": [],
      "stateMutability": "nonpayable",
      "type": "function"
    },
    {
      "inputs": [
        {
          "internalType": "uint256",
          "name": "",
          "type": "uint256"
        }
      ],
      "name": "communityPayoutRoot",
      "outputs": [
        {
          "internalType": "bytes32",
          "name": "",
          "type": "bytes32"
        }
      ],
      "stateMutability": "view",
      "type": "function"
    },
    {
      "inputs": [
        {
          "internalType": "uint256",
          "name": "",
          "type": "uint256"
        }
      ],
      "name": "communityPayoutTotalClaimable",
      "outputs": [
        {
          "internalType": "uint256",
          "name": "",
          "type": "uint256"
        }
      ],
      "stateMutability": "view",
      "type": "function"
    },
    {
      "inputs": [
        {
          "internalType": "uint256",
          "name": "",
          "type": "uint256"
        },
        {
          "internalType": "address",
          "name": "",
          "type": "address"
        }
      ],
      "name": "communityRewardClaimed",
      "outputs": [
        {
          "internalType": "bool",
          "name": "",
          "type": "bool"
        }
      ],
      "stateMutability": "view",
      "type": "function"
    },
    {
      "inputs": [
        {
          "internalType": "string",
          "name": "contentHash",
          "type": "string"
        },
        {
          "internalType": "uint256",
          "name": "duration",
          "type": "uint256"
        },
        {
          "internalType": "uint256",
          "name": "proofIntervalSeconds",
          "type": "uint256"
        }
      ],
      "name": "createCommunityChallenge",
      "outputs": [
        {
          "internalType": "uint256",
          "name": "",
          "type": "uint256"
        }
      ],
      "stateMutability": "nonpayable",
      "type": "function"
    },
    {
      "inputs": [],
      "name": "currency",
      "outputs": [
        {
          "internalType": "contract IERC20",
          "name": "",
          "type": "address"
        }
      ],
      "stateMutability": "view",
      "type": "function"
    },
    {
      "inputs": [
        {
          "internalType": "uint256",
          "name": "campaignId",
          "type": "uint256"
        }
      ],
      "name": "endCommunityChallenge",
      "outputs": [],
      "stateMutability": "nonpayable",
      "type": "function"
    },
    {
      "inputs": [
        {
          "internalType": "uint256",
          "name": "campaignId",
          "type": "uint256"
        },
        {
          "internalType": "uint256",
          "name": "amount",
          "type": "uint256"
        }
      ],
      "name": "fundCommunityChallenge",
      "outputs": [],
      "stateMutability": "nonpayable",
      "type": "function"
    },
    {
      "inputs": [
        {
          "internalType": "address",
          "name": "_currency",
          "type": "address"
        },
        {
          "internalType": "address",
          "name": "initialOwner",
          "type": "address"
        }
      ],
      "name": "initialize",
      "outputs": [],
      "stateMutability": "nonpayable",
      "type": "function"
    },
    {
      "inputs": [
        {
          "internalType": "uint256",
          "name": "campaignId",
          "type": "uint256"
        }
      ],
      "name": "isCampaignActive",
      "outputs": [
        {
          "internalType": "bool",
          "name": "",
          "type": "bool"
        }
      ],
      "stateMutability": "view",
      "type": "function"
    },
    {
      "inputs": [
        {
          "internalType": "uint256",
          "name": "campaignId",
          "type": "uint256"
        }
      ],
      "name": "joinCommunityCampaign",
      "outputs": [],
      "stateMutability": "nonpayable",
      "type": "function"
    },
    {
      "inputs": [
        {
          "internalType": "uint256",
          "name": "",
          "type": "uint256"
        },
        {
          "internalType": "uint256",
          "name": "",
          "type": "uint256"
        },
        {
          "internalType": "address",
          "name": "",
          "type": "address"
        }
      ],
      "name": "milestoneCompleted",
      "outputs": [
        {
          "internalType": "bool",
          "name": "",
          "type": "bool"
        }
      ],
      "stateMutability": "view",
      "type": "function"
    },
    {
      "inputs": [],
      "name": "nextCampaignId",
      "outputs": [
        {
          "internalType": "uint256",
          "name": "",
          "type": "uint256"
        }
      ],
      "stateMutability": "view",
      "type": "function"
    },
    {
      "inputs": [],
      "name": "owner",
      "outputs": [
        {
          "internalType": "address",
          "name": "",
          "type": "address"
        }
      ],
      "stateMutability": "view",
      "type": "function"
    },
    {
      "inputs": [
        {
          "internalType": "uint256",
          "name": "",
          "type": "uint256"
        },
        {
          "internalType": "address",
          "name": "",
          "type": "address"
        }
      ],
      "name": "participantCompletedMilestones",
      "outputs": [
        {
          "internalType": "uint256",
          "name": "",
          "type": "uint256"
        }
      ],
      "stateMutability": "view",
      "type": "function"
    },
    {
      "inputs": [
        {
          "internalType": "uint256",
          "name": "",
          "type": "uint256"
        },
        {
          "internalType": "address",
          "name": "",
          "type": "address"
        }
      ],
      "name": "participantLastProofAt",
      "outputs": [
        {
          "internalType": "uint256",
          "name": "",
          "type": "uint256"
        }
      ],
      "stateMutability": "view",
      "type": "function"
    },
    {
      "inputs": [
        {
          "internalType": "uint256",
          "name": "",
          "type": "uint256"
        },
        {
          "internalType": "address",
          "name": "",
          "type": "address"
        }
      ],
      "name": "participantPoints",
      "outputs": [
        {
          "internalType": "uint256",
          "name": "",
          "type": "uint256"
        }
      ],
      "stateMutability": "view",
      "type": "function"
    },
    {
      "inputs": [
        {
          "internalType": "uint256",
          "name": "",
          "type": "uint256"
        },
        {
          "internalType": "address",
          "name": "",
          "type": "address"
        }
      ],
      "name": "participantStake",
      "outputs": [
        {
          "internalType": "uint256",
          "name": "",
          "type": "uint256"
        }
      ],
      "stateMutability": "view",
      "type": "function"
    },
    {
      "inputs": [
        {
          "internalType": "uint256",
          "name": "",
          "type": "uint256"
        },
        {
          "internalType": "address",
          "name": "",
          "type": "address"
        }
      ],
      "name": "participantStreak",
      "outputs": [
        {
          "internalType": "uint256",
          "name": "",
          "type": "uint256"
        }
      ],
      "stateMutability": "view",
      "type": "function"
    },
    {
      "inputs": [],
      "name": "proxiableUUID",
      "outputs": [
        {
          "internalType": "bytes32",
          "name": "",
          "type": "bytes32"
        }
      ],
      "stateMutability": "view",
      "type": "function"
    },
    {
      "inputs": [],
      "name": "renounceOwnership",
      "outputs": [],
      "stateMutability": "nonpayable",
      "type": "function"
    },
    {
      "inputs": [
        {
          "internalType": "uint256",
          "name": "campaignId",
          "type": "uint256"
        },
        {
          "internalType": "bool",
          "name": "isPaid",
          "type": "bool"
        },
        {
          "internalType": "address",
          "name": "joinToken",
          "type": "address"
        },
        {
          "internalType": "uint256",
          "name": "joinAmount",
          "type": "uint256"
        },
        {
          "internalType": "uint8",
          "name": "forfeitPct",
          "type": "uint8"
        }
      ],
      "name": "setCommunityCampaignEconomics",
      "outputs": [],
      "stateMutability": "nonpayable",
      "type": "function"
    },
    {
      "inputs": [
        {
          "internalType": "uint256",
          "name": "campaignId",
          "type": "uint256"
        },
        {
          "internalType": "bytes32",
          "name": "merkleRoot",
          "type": "bytes32"
        },
        {
          "internalType": "uint256",
          "name": "totalClaimable",
          "type": "uint256"
        }
      ],
      "name": "setCommunityPayoutRoot",
      "outputs": [],
      "stateMutability": "nonpayable",
      "type": "function"
    },
    {
      "inputs": [
        {
          "internalType": "uint256",
          "name": "campaignId",
          "type": "uint256"
        },
        {
          "internalType": "uint256",
          "name": "milestoneId",
          "type": "uint256"
        },
        {
          "internalType": "string",
          "name": "proofLink",
          "type": "string"
        }
      ],
      "name": "submitCommunityCampaignMilestoneProof",
      "outputs": [],
      "stateMutability": "nonpayable",
      "type": "function"
    },
    {
      "inputs": [
        {
          "internalType": "address",
          "name": "newOwner",
          "type": "address"
        }
      ],
      "name": "transferOwnership",
      "outputs": [],
      "stateMutability": "nonpayable",
      "type": "function"
    },
    {
      "inputs": [
        {
          "internalType": "address",
          "name": "newImplementation",
          "type": "address"
        },
        {
          "internalType": "bytes",
          "name": "data",
          "type": "bytes"
        }
      ],
      "name": "upgradeToAndCall",
      "outputs": [],
      "stateMutability": "payable",
      "type": "function"
    },
    {
      "inputs": [
        {
          "internalType": "uint256",
          "name": "campaignId",
          "type": "uint256"
        },
        {
          "internalType": "address",
          "name": "to",
          "type": "address"
        },
        {
          "internalType": "uint256",
          "name": "amount",
          "type": "uint256"
        }
      ],
      "name": "withdrawPool",
      "outputs": [],
      "stateMutability": "nonpayable",
      "type": "function"
    }
  ],
  "bytecode": "0x60a080604052346100ea57306080527ff0c57e16840df040f15088dc2f81fe391c3923bec73e23a9662efc9c229c6a005460ff8160401c166100d9576002600160401b03196001600160401b03821601610073575b60405161261e90816100f08239608051818181611829015261197e0152f35b6001600160401b0319166001600160401b039081177ff0c57e16840df040f15088dc2f81fe391c3923bec73e23a9662efc9c229c6a005581527fc7f505b2f371ae2175ee4913f4499e1f2633a7b5936321eed1cdaeb6115181d290602090a13880610054565b63f92ee8a960e01b60005260046000fd5b600080fdfe608080604052600436101561001357600080fd5b60003560e01c9081630a3f1c0d14611f9e575080630da8279614611f56578063141961bc14611eb157806314f77be014611e8557806316cc4aac14611e3e57806322b8e94714611de357806325a7aad014611d9b57806327cfe85614611d7d5780633eee864b14611d3057806341922d8d14611cfd578063485cc95514611b445780634f1ef286146119305780635120af011461188057806352d1902d146118165780635bb5e3d4146117a357806362e5d73e1461177457806363418b191461174857806368eebd5f146116995780636c4016da1461166d5780636cdcf578146115ac5780636f660fc814611579578063715018a61461150f5780637903a756146114f15780637bb2f4df146114a95780638b21f275146114615780638da5cb5b1461142b57806399e4b455146111e95780639f144788146111b5578063a1d3f10414611016578063a23ceb0214610d24578063aa4b31d014610a7b578063ac6e463814610900578063ad3cb1cc146108b5578063bcf6447514610899578063d01e3aa41461087c578063d565d8f7146105a5578063d91db36a14610574578063dd5c953714610548578063e1e33009146104d5578063e5a6b10f146104ac578063f2fde38b14610481578063f5ab3daa14610439578063f60525c51461040d578063f814ca7f146102605763f9ca279b1461020e57600080fd5b3461025b57604036600319011261025b57610227611fb8565b600435600052600760205260406000209060018060a01b0316600052602052602060ff604060002054166040519015158152f35b600080fd5b3461025b57602036600319011261025b5760043561027c6123b1565b600081815260026020526040902060050154601081901c6001600160a01b0316156103fc5760081c60ff16156103eb57600081815260076020908152604080832033845290915290205460ff16156103da5760008181526011602090815260408083203384529091529020549081156103c95760008181526011602090815260408083203384528252808320839055838352600e9091529020546001600160a01b03168061039e57506000546001600160a01b0316917fdf894d7502b7d4eecda34574b4643ce27b0b05889a1ee1093c8522b0d995a91e90610387905b6103648133876123ed565b604080516001600160a01b03909616865260208601919091523394918291820190565b0390a360016000805160206125a983398151915255005b6103877fdf894d7502b7d4eecda34574b4643ce27b0b05889a1ee1093c8522b0d995a91e9193610359565b631eaaeb1b60e21b60005260046000fd5b63c394a43360e01b60005260046000fd5b63cc76115360e01b60005260046000fd5b6337f9b70b60e11b60005260046000fd5b3461025b57602036600319011261025b5760043560005260146020526020604060002054604051908152f35b3461025b57604036600319011261025b57610452611fb8565b600435600052601160205260406000209060018060a01b03166000526020526020604060002054604051908152f35b3461025b57602036600319011261025b576104aa61049d611fe4565b6104a561237b565b6122a0565b005b3461025b57600036600319011261025b576000546040516001600160a01b039091168152602090f35b3461025b57602036600319011261025b5760043560005260026020526020604060002060058101549060ff82169182610539575b508161051b575b506040519015158152f35b6105309150600360028201549101549061220c565b42111582610510565b60081c60ff1615915083610509565b3461025b57602036600319011261025b5760043560005260126020526020604060002054604051908152f35b3461025b57602036600319011261025b57600435600052600d602052602060ff604060002054166040519015158152f35b3461025b57606036600319011261025b576004356001600160401b03811161025b576105d59036906004016121d2565b906044356024351561086b578015610861575b600154916105f583612219565b6001556040519361010085018581106001600160401b0382111761084b5760405261062136828461216b565b8552600060208601524260408601526024356060860152826080860152600160a0860152600060c08601523360e08601528360005260026020526040600020918551918251966001600160401b03881161084b5787879461068e60209a6106888954611ffa565b8961224e565b8990601f83116001146107b657966106e68360e0946005947fb145d7f84470fba41d993cce561b706b42f46d9ed04dd45dc5fc5d5debb5c8869a9b6000926107ab575b50508160011b916000199060031b1c19161790565b81555b8a8401516001820155604084015160028201556060840151600382015560808401516004820155019161072e60a08201511515849060ff801983541691151516179055565b60c081015183549290910151610100600160b01b031990921690151560081b61ff00161760109190911b62010000600160b01b0316179055604051606080825281018290529181906080840137600060808284010152601f80199101168101936024358783015260408201526080813395030190a3604051908152f35b015190508e806106d1565b8760009893929852876000209060005b601f198416811061083157508260e094927fb145d7f84470fba41d993cce561b706b42f46d9ed04dd45dc5fc5d5debb5c886999a600193600596601f19811610610818575b505050811b0181556106e9565b015160001960f88460031b161c191690558d808061080b565b818a01518355988c01988b98506001909201918c016107c6565b634e487b7160e01b600052604160045260246000fd5b50620151806105e8565b63b4fa3fb360e01b60005260046000fd5b3461025b57600036600319011261025b5760206040516103e88152f35b3461025b57600036600319011261025b57602060405160018152f35b3461025b57600036600319011261025b576108fc60408051906108d88183612034565b60058252640352e302e360dc1b6020830152519182916020835260208301906120f9565b0390f35b3461025b5760a036600319011261025b576004356024358015159081810361025b5761092a611fce565b916064356084359060ff821680920361025b5761094686612316565b856000526012602052604060002054610a6a578380610a62575b61086b578380610a59575b80610a4e575b80610a43575b80610a38575b610a27577f0cc41562bd3e2a3df8a1313299bc63e54c9e3bc7174bb92c9649edf64a2f9878946109c860809588600052600d60205260406000209060ff801983541691151516179055565b6000878152600e6020908152604080832080546001600160a01b0319166001600160a01b039095169485179055600f82528083208590556010825291829020805460ff19168617905581519586528501919091528301526060820152a2005b63e2c0566760e01b60005260046000fd5b50600a82141561097d565b506005821415610977565b506002821415610971565b5081151561096b565b508015610960565b632b6510ed60e11b60005260046000fd5b3461025b57606036600319011261025b576004356024356044356001600160401b03811161025b57610ab19036906004016121d2565b83600094929452600260205260056040600020015460ff811615908115610d16575b506103fc57600082815260076020908152604080832033845290915290205460ff16156103da57816000526003602052604060002054831015610d05576000828152600c60209081526040808320868452825280832033845290915290205460ff16610cf4578160005260056020526040600020836000526020526040600020544210610ce3578160005260066020526040600020836000526020526040600020544211610cd2576000828152600c60209081526040808320868452825280832033808552908352818420805460ff19166001908117909155868552600b8452828520918552925290912054908101908110610cbc576000838152600b602090815260408083203380855290835281842094909455858352600a825280832084845282528083204290558583526008825280832093835292905220546103e8810194908510610cbc5760008381526008602090815260408083203380855290835281842089905586845260098352818420908452909152902080547fd8db002a4374f5dec1fdb488775cdc75f5b23fd6140a45234b5e11d5b5c76c97939190610c7b90612219565b90558060405192606084528160608501526080840137600060808284010152601f80199101168101946103e8602083015260408201526080813396030190a4005b634e487b7160e01b600052601160045260246000fd5b63d1d9e3e360e01b60005260046000fd5b630928fcdd60e31b60005260046000fd5b63195332a560e01b60005260046000fd5b630f10172360e11b60005260046000fd5b60ff915060081c1685610ad3565b3461025b57606036600319011261025b576004356024356001600160401b03811161025b57610d579036906004016121a2565b6044356001600160401b03811161025b57610d769036906004016121a2565b929093610d8281612316565b80600052600260205260406000209060ff600583015460081c166110055783158015610ffb575b61086b576000818152600360205260408120549283610fbb57600291500154959394955b93600096601e1985360301955b87891015610f7557610ded898385612228565b351561086b57610e08610e018a8486612228565b358261220c565b906000908a60051b88013589811215610f7157880180356001600160401b038111610f6d578036036020830113610f6d57878452600460205260408420610e4f8e8b61220c565b85526020526040842091610e6d82610e678554611ffa565b8561224e565b8490601f8311600114610efa5792610ea683879489989460409760019b999692610eec5750508160011b916000199060031b1c19161790565b90555b8882526005602052828220610ebe8f8c61220c565b83526020528282205587815260066020528c610edd838320918b61220c565b82526020522055980197610dda565b6020925001013538806106d1565b8386526020862091601f198416875b818110610f53575093889794936040969360019a989593838c9510610f36575b505050811b019055610ea9565b0160200135600019600384901b60f8161c19169055388080610f29565b919360206001819282888801013581550195019201610f09565b8380fd5b8280fd5b837f715febe6ae7c61adb66c6cf9c43d8493049b8300819b70bc4956b82c7fd645f56020610fa38b8961220c565b836000526003825280604060002055604051908152a2005b508181526006602052604081206000198401848111610fe7578252602052604090205494959394610dcd565b634e487b7160e01b83526011600452602483fd5b5084841415610da9565b634f9ebfb760e01b60005260046000fd5b3461025b57602036600319011261025b576004356110326123b1565b80600052600260205260056040600020015460ff8116159081156111a7575b506103fc578060005260036020526040600020541561119657600081815260076020908152604080832033845290915290205460ff166111865780600052600d60205260ff60406000205416611118575b60008181526007602090815260408083203384528252808320805460ff191660011790558383526012909152902080546110db90612219565b905533907f546dc74f5d21f063b6e22444be10828feebf65248cd3ff58b13f12bd03968fbc600080a360016000805160206125a983398151915255005b6000818152600e6020908152604080832054600f90925290912054906001600160a01b0316818161117d5760005461115e92506001600160a01b03165b3090339061242e565b60008281526011602090815260408083203384529091529020556110a2565b61115e91611155565b621d934160e11b60005260046000fd5b631712a07360e21b60005260046000fd5b60ff915060081c1682611051565b3461025b57602036600319011261025b57600435600052600e602052602060018060a01b0360406000205416604051908152f35b3461025b57606036600319011261025b576004356024356044356001600160401b03811161025b5761121f9036906004016121a2565b92909161122a6123b1565b81600052600260205260406000209160ff600584015460081c16156103eb5780600052601360205260406000205493841561141a57600082815260156020908152604080832033845290915290205460ff1661140957821580156113fc575b61086b5760405160208101908382523360601b6040820152846054820152605481526112b6607482612034565b519020906001600160401b03871161084b578660051b604051976112dd602083018a612034565b8852602088019082019136831161025b57905b8282106113ec57505050926000935b865185101561134057604060019160009060208860051b8b01015190818110600014611334578252602052205b9401936112ff565b9082526020522061132c565b85036113db576001908260005260156020526040600020828060a01b03331660005260205260406000208260ff19825416179055016113808382546121ff565b905560005461139b90839033906001600160a01b03166123ed565b6040519182527f516116529a179e75d7e3f94450b75421aca564f6a67c761994adbd275eeec1ce60203393a360016000805160206125a983398151915255005b6309bde33960e01b60005260046000fd5b81358152602091820191016112f0565b5060018401548311611289565b630c8d9eab60e31b60005260046000fd5b6309f972d360e01b60005260046000fd5b3461025b57600036600319011261025b57600080516020612569833981519152546040516001600160a01b039091168152602090f35b3461025b57604036600319011261025b5761147a611fb8565b600435600052600860205260406000209060018060a01b03166000526020526020604060002054604051908152f35b3461025b57604036600319011261025b576114c2611fb8565b600435600052600a60205260406000209060018060a01b03166000526020526020604060002054604051908152f35b3461025b57600036600319011261025b576020600154604051908152f35b3461025b57600036600319011261025b5761152861237b565b60008051602061256983398151915280546001600160a01b031981169091556000906001600160a01b03167f8be0079c531659141344cd1fd0a4f28419497f9722a3daafe3b4186f6b6457e08280a3005b3461025b576115873661213a565b9060005260056020526040600020906000526020526020604060002054604051908152f35b3461025b576115ba3661213a565b906115c36123b1565b60008181526002602052604090206005810154601081901c6001600160a01b0316156103fc5760081c60ff1661100557821561086b5760005460019190611618908590309033906001600160a01b031661242e565b019161162581845461220c565b80935560405192835260208301527f17a9499c7f8c303c8ec0d3b7c59d57f75b1f24a8cb18a0724489f15de964cf6f60403393a360016000805160206125a983398151915255005b3461025b57602036600319011261025b57600435600052600f6020526020604060002054604051908152f35b3461025b57606036600319011261025b576116b2611fb8565b6044356116bd61237b565b6116c56123b1565b6001600160a01b0382161561086b57600435600052600260205260406000209160ff600584015460081c16156103eb578115801561173b575b61086b57600161172793016117148382546121ff565b90556000546001600160a01b03166123ed565b60016000805160206125a983398151915255005b50600183015482116116fe565b3461025b57602036600319011261025b5760043560005260136020526020604060002054604051908152f35b3461025b57602036600319011261025b576004356000526010602052602060ff60406000205416604051908152f35b3461025b57602036600319011261025b576004356117c081612316565b8060005260026020526005604060002001805460ff8160081c16611005576101009061ffff19161790557ff7aca31a83f0009de8f00341058bdfb87b384ed0da01a72884acaf3a430812986020604051428152a2005b3461025b57600036600319011261025b577f00000000000000000000000000000000000000000000000000000000000000006001600160a01b0316300361186f5760206040516000805160206125898339815191528152f35b63703e46dd60e11b60005260046000fd5b3461025b57606036600319011261025b576004356024356044356118a383612316565b826000526002602052604060002060ff600582015460081c16156103eb5782158015611928575b61086b5760010154811161086b577f04efced7267f83589fa894cc4a621d8a028927face7b96e88ae5a720fa7b3bcf9160409184600052601360205281836000205584600052601460205280836000205582519182526020820152a2005b5081156118ca565b604036600319011261025b57611944611fe4565b6024356001600160401b03811161025b573660238201121561025b5761197490369060248160040135910161216b565b6001600160a01b037f000000000000000000000000000000000000000000000000000000000000000016308114908115611b21575b5061186f576119b661237b565b6040516352d1902d60e01b81526001600160a01b0383169290602081600481875afa60009181611aed575b506119fb5783634c9c8ce360e01b60005260045260246000fd5b80600080516020612589833981519152859203611ad95750813b15611ac55760008051602061258983398151915280546001600160a01b031916821790557fbc7cd75a20ee27fd9adebab32041f755214dbc6bffa90cc0225b39da2e5c2d3b600080a2815115611aab576000808360206104aa95519101845af43d15611aa3573d91611a8683612150565b92611a946040519485612034565b83523d6000602085013e612507565b606091612507565b505034611ab457005b63b398979f60e01b60005260046000fd5b634c9c8ce360e01b60005260045260246000fd5b632a87526960e21b60005260045260246000fd5b9091506020813d602011611b19575b81611b0960209383612034565b8101031261025b575190856119e1565b3d9150611afc565b600080516020612589833981519152546001600160a01b031614159050836119a9565b3461025b57604036600319011261025b57611b5d611fe4565b611b65611fb8565b6000805160206125c9833981519152549160ff8360401c1615926001600160401b03811680159081611cf5575b6001149081611ceb575b159081611ce2575b50611cd15767ffffffffffffffff1981166001176000805160206125c98339815191525583611ca4575b506001600160a01b03169081158015611c93575b61086b57611bfa90611bf2612472565b6104a5612472565b611c02612472565b611c0a612472565b60016000805160206125a9833981519152556bffffffffffffffffffffffff60a01b6000541617600055611c3a57005b68ff0000000000000000196000805160206125c983398151915254166000805160206125c9833981519152557fc7f505b2f371ae2175ee4913f4499e1f2633a7b5936321eed1cdaeb6115181d2602060405160018152a1005b506001600160a01b03811615611be2565b68ffffffffffffffffff191668010000000000000001176000805160206125c98339815191525583611bce565b63f92ee8a960e01b60005260046000fd5b90501585611ba4565b303b159150611b9c565b859150611b92565b3461025b57611d0b3661213a565b9060005260066020526040600020906000526020526020604060002054604051908152f35b3461025b57604036600319011261025b57611d49611fb8565b600435600052601560205260406000209060018060a01b0316600052602052602060ff604060002054166040519015158152f35b3461025b57600036600319011261025b576020604051620151808152f35b3461025b57604036600319011261025b57611db4611fb8565b600435600052600b60205260406000209060018060a01b03166000526020526020604060002054604051908152f35b3461025b57606036600319011261025b57611dfc611fce565b600435600052600c602052604060002060243560005260205260406000209060018060a01b0316600052602052602060ff604060002054166040519015158152f35b3461025b57611e4c3661213a565b9060005260046020526040600020906000526020526108fc611e716040600020612055565b6040519182916020835260208301906120f9565b3461025b57602036600319011261025b5760043560005260036020526020604060002054604051908152f35b3461025b57602036600319011261025b576004356000526002602052611f116040600020611ede81612055565b906001810154906002810154906003810154600560048301549201549260405196879661010088526101008801906120f9565b602087019590955260408601526060850152608084015260ff818116151560a0850152600882901c16151560c084015260101c6001600160a01b031660e08301520390f35b3461025b57604036600319011261025b57611f6f611fb8565b600435600052600960205260406000209060018060a01b03166000526020526020604060002054604051908152f35b3461025b57600036600319011261025b5780600760209252f35b602435906001600160a01b038216820361025b57565b604435906001600160a01b038216820361025b57565b600435906001600160a01b038216820361025b57565b90600182811c9216801561202a575b602083101461201457565b634e487b7160e01b600052602260045260246000fd5b91607f1691612009565b90601f801991011681019081106001600160401b0382111761084b57604052565b906040519182600082549261206984611ffa565b80845293600181169081156120d75750600114612090575b5061208e92500383612034565b565b90506000929192526020600020906000915b8183106120bb57505090602061208e9282010138612081565b60209193508060019154838589010152019101909184926120a2565b90506020925061208e94915060ff191682840152151560051b82010138612081565b919082519283825260005b848110612125575050826000602080949584010152601f8019910116010190565b80602080928401015182828601015201612104565b604090600319011261025b576004359060243590565b6001600160401b03811161084b57601f01601f191660200190565b92919261217782612150565b916121856040519384612034565b82948184528183011161025b578281602093846000960137010152565b9181601f8401121561025b578235916001600160401b03831161025b576020808501948460051b01011161025b57565b9181601f8401121561025b578235916001600160401b03831161025b576020838186019501011161025b57565b91908203918211610cbc57565b91908201809211610cbc57565b6000198114610cbc5760010190565b91908110156122385760051b0190565b634e487b7160e01b600052603260045260246000fd5b601f821161225b57505050565b6000526020600020906020601f840160051c83019310612296575b601f0160051c01905b81811061228a575050565b6000815560010161227f565b9091508190612276565b6001600160a01b031680156123005760008051602061256983398151915280546001600160a01b0319811683179091556001600160a01b03167f8be0079c531659141344cd1fd0a4f28419497f9722a3daafe3b4186f6b6457e0600080a3565b631e4fbdf760e01b600052600060045260246000fd5b60009081526002602052604090206005015460101c6001600160a01b031680156103fc5733141580612359575b61234957565b6282b42960e81b60005260046000fd5b50600080516020612569833981519152546001600160a01b0316331415612343565b600080516020612569833981519152546001600160a01b0316330361239c57565b63118cdaa760e01b6000523360045260246000fd5b60026000805160206125a983398151915254146123dc5760026000805160206125a983398151915255565b633ee5aeb560e01b60005260046000fd5b60405163a9059cbb60e01b60208201526001600160a01b0392909216602483015260448083019390935291815261208e91612429606483612034565b6124a0565b6040516323b872dd60e01b60208201526001600160a01b03928316602482015292909116604483015260648083019390935291815261208e91612429608483612034565b60ff6000805160206125c98339815191525460401c161561248f57565b631afcd79f60e31b60005260046000fd5b906000602091828151910182855af1156124fb576000513d6124f257506001600160a01b0381163b155b6124d15750565b635274afe760e01b60009081526001600160a01b0391909116600452602490fd5b600114156124ca565b6040513d6000823e3d90fd5b9061252d575080511561251c57602081519101fd5b63d6bda27560e01b60005260046000fd5b8151158061255f575b61253e575090565b639996b31560e01b60009081526001600160a01b0391909116600452602490fd5b50803b1561253656fe9016d09d72d40fdae2fd8ceac6b6234c7706214fd39c1cd1e609a0528c199300360894a13ba1a3210667c828492db98dca3e2076cc3735a920a3ca505d382bbc9b779b17422d0df92223018b32b4d1fa46e071723d6817e2486d003becc55f00f0c57e16840df040f15088dc2f81fe391c3923bec73e23a9662efc9c229c6a00a2646970667358221220446a0f5b36a764f7fec0d795f7268f63f33e30dbc558834e99c12324dcbf923664736f6c634300081c0033",
  "linkReferences": {},
  "deployedLinkReferences": {}
}